{
 "cells": [
  {
   "cell_type": "code",
   "execution_count": 11,
   "id": "cheap-fifth",
   "metadata": {},
   "outputs": [],
   "source": [
    "import pprint"
   ]
  },
  {
   "cell_type": "code",
   "execution_count": 1,
   "id": "incomplete-evaluation",
   "metadata": {},
   "outputs": [
    {
     "data": {
      "text/plain": [
       "True"
      ]
     },
     "execution_count": 1,
     "metadata": {},
     "output_type": "execute_result"
    }
   ],
   "source": [
    "from web3 import Web3\n",
    "w3 = Web3(Web3.HTTPProvider('https://mainnet.infura.io/v3/786a7764b8234b06b4cd6764a1646a17'))\n",
    "w3.isConnected()"
   ]
  },
  {
   "cell_type": "code",
   "execution_count": 25,
   "id": "double-banking",
   "metadata": {},
   "outputs": [
    {
     "data": {
      "text/plain": [
       "AttributeDict({'blockHash': HexBytes('0x4e3a3754410177e6937ef1f84bba68ea139e8d1a2258c5f85db9f1cd715a1bdd'),\n",
       " 'blockNumber': 46147,\n",
       " 'from': '0xA1E4380A3B1f749673E270229993eE55F35663b4',\n",
       " 'gas': 21000,\n",
       " 'gasPrice': 50000000000000,\n",
       " 'hash': HexBytes('0x5c504ed432cb51138bcf09aa5e8a410dd4a1e204ef84bfed1be16dfba1b22060'),\n",
       " 'input': '0x',\n",
       " 'nonce': 0,\n",
       " 'r': HexBytes('0x88ff6cf0fefd94db46111149ae4bfc179e9b94721fffd821d38d16464b3f71d0'),\n",
       " 's': HexBytes('0x45e0aff800961cfce805daef7016b9b675c137a6a41a548f7b60a3484c06a33a'),\n",
       " 'to': '0x5DF9B87991262F6BA471F09758CDE1c0FC1De734',\n",
       " 'transactionIndex': 0,\n",
       " 'v': 28,\n",
       " 'value': 31337})"
      ]
     },
     "execution_count": 25,
     "metadata": {},
     "output_type": "execute_result"
    }
   ],
   "source": [
    "TX = '0x5c504ed432cb51138bcf09aa5e8a410dd4a1e204ef84bfed1be16dfba1b22060'\n",
    "w3.eth.get_transaction(TX)"
   ]
  },
  {
   "cell_type": "code",
   "execution_count": 22,
   "id": "distinct-cradle",
   "metadata": {},
   "outputs": [
    {
     "data": {
      "text/plain": [
       "('0x694181271416b88CC82a9d3c068aE78717372bCC',\n",
       " HexBytes('0x6c31a49d86b29cef0e412f46141b365ba721ccff0486317bc47fc666760e4738'))"
      ]
     },
     "execution_count": 22,
     "metadata": {},
     "output_type": "execute_result"
    }
   ],
   "source": [
    "my_account = w3.eth.account.create('shafou'); my_account._address"
   ]
  },
  {
   "cell_type": "code",
   "execution_count": 29,
   "id": "laughing-undergraduate",
   "metadata": {},
   "outputs": [],
   "source": [
    "ABI = '[{\"constant\":true,\"inputs\":[],\"name\":\"name\",\"outputs\":[{\"internalType\":\"string\",\"name\":\"\",\"type\":\"string\"}],\"payable\":false,\"stateMutability\":\"view\",\"type\":\"function\"},{\"constant\":false,\"inputs\":[{\"internalType\":\"address\",\"name\":\"spender\",\"type\":\"address\"},{\"internalType\":\"uint256\",\"name\":\"value\",\"type\":\"uint256\"}],\"name\":\"approve\",\"outputs\":[{\"internalType\":\"bool\",\"name\":\"\",\"type\":\"bool\"}],\"payable\":false,\"stateMutability\":\"nonpayable\",\"type\":\"function\"},{\"constant\":true,\"inputs\":[],\"name\":\"totalSupply\",\"outputs\":[{\"internalType\":\"uint256\",\"name\":\"\",\"type\":\"uint256\"}],\"payable\":false,\"stateMutability\":\"view\",\"type\":\"function\"},{\"constant\":false,\"inputs\":[{\"internalType\":\"address\",\"name\":\"from\",\"type\":\"address\"},{\"internalType\":\"address\",\"name\":\"to\",\"type\":\"address\"},{\"internalType\":\"uint256\",\"name\":\"value\",\"type\":\"uint256\"}],\"name\":\"transferFrom\",\"outputs\":[{\"internalType\":\"bool\",\"name\":\"\",\"type\":\"bool\"}],\"payable\":false,\"stateMutability\":\"nonpayable\",\"type\":\"function\"},{\"constant\":true,\"inputs\":[],\"name\":\"decimals\",\"outputs\":[{\"internalType\":\"uint8\",\"name\":\"\",\"type\":\"uint8\"}],\"payable\":false,\"stateMutability\":\"view\",\"type\":\"function\"},{\"constant\":false,\"inputs\":[{\"internalType\":\"address\",\"name\":\"spender\",\"type\":\"address\"},{\"internalType\":\"uint256\",\"name\":\"addedValue\",\"type\":\"uint256\"}],\"name\":\"increaseAllowance\",\"outputs\":[{\"internalType\":\"bool\",\"name\":\"\",\"type\":\"bool\"}],\"payable\":false,\"stateMutability\":\"nonpayable\",\"type\":\"function\"},{\"constant\":false,\"inputs\":[{\"internalType\":\"address\",\"name\":\"to\",\"type\":\"address\"},{\"internalType\":\"uint256\",\"name\":\"value\",\"type\":\"uint256\"}],\"name\":\"mint\",\"outputs\":[{\"internalType\":\"bool\",\"name\":\"\",\"type\":\"bool\"}],\"payable\":false,\"stateMutability\":\"nonpayable\",\"type\":\"function\"},{\"constant\":true,\"inputs\":[{\"internalType\":\"address\",\"name\":\"owner\",\"type\":\"address\"}],\"name\":\"balanceOf\",\"outputs\":[{\"internalType\":\"uint256\",\"name\":\"\",\"type\":\"uint256\"}],\"payable\":false,\"stateMutability\":\"view\",\"type\":\"function\"},{\"constant\":true,\"inputs\":[],\"name\":\"symbol\",\"outputs\":[{\"internalType\":\"string\",\"name\":\"\",\"type\":\"string\"}],\"payable\":false,\"stateMutability\":\"view\",\"type\":\"function\"},{\"constant\":false,\"inputs\":[{\"internalType\":\"address\",\"name\":\"spender\",\"type\":\"address\"},{\"internalType\":\"uint256\",\"name\":\"subtractedValue\",\"type\":\"uint256\"}],\"name\":\"decreaseAllowance\",\"outputs\":[{\"internalType\":\"bool\",\"name\":\"\",\"type\":\"bool\"}],\"payable\":false,\"stateMutability\":\"nonpayable\",\"type\":\"function\"},{\"constant\":false,\"inputs\":[{\"internalType\":\"address\",\"name\":\"to\",\"type\":\"address\"},{\"internalType\":\"uint256\",\"name\":\"value\",\"type\":\"uint256\"}],\"name\":\"transfer\",\"outputs\":[{\"internalType\":\"bool\",\"name\":\"\",\"type\":\"bool\"}],\"payable\":false,\"stateMutability\":\"nonpayable\",\"type\":\"function\"},{\"constant\":true,\"inputs\":[{\"internalType\":\"address\",\"name\":\"owner\",\"type\":\"address\"},{\"internalType\":\"address\",\"name\":\"spender\",\"type\":\"address\"}],\"name\":\"allowance\",\"outputs\":[{\"internalType\":\"uint256\",\"name\":\"\",\"type\":\"uint256\"}],\"payable\":false,\"stateMutability\":\"view\",\"type\":\"function\"},{\"inputs\":[],\"payable\":false,\"stateMutability\":\"nonpayable\",\"type\":\"constructor\"},{\"anonymous\":false,\"inputs\":[{\"indexed\":true,\"internalType\":\"address\",\"name\":\"from\",\"type\":\"address\"},{\"indexed\":true,\"internalType\":\"address\",\"name\":\"to\",\"type\":\"address\"},{\"indexed\":false,\"internalType\":\"uint256\",\"name\":\"value\",\"type\":\"uint256\"}],\"name\":\"Transfer\",\"type\":\"event\"},{\"anonymous\":false,\"inputs\":[{\"indexed\":true,\"internalType\":\"address\",\"name\":\"owner\",\"type\":\"address\"},{\"indexed\":true,\"internalType\":\"address\",\"name\":\"spender\",\"type\":\"address\"},{\"indexed\":false,\"internalType\":\"uint256\",\"name\":\"value\",\"type\":\"uint256\"}],\"name\":\"Approval\",\"type\":\"event\"}]'\n",
    "ABI = json.loads(ABI)\n",
    "ADDRESS = '0x6B175474E89094C44Da98b954EedeAC495271d0F'"
   ]
  },
  {
   "cell_type": "code",
   "execution_count": 41,
   "id": "accessory-shift",
   "metadata": {},
   "outputs": [
    {
     "data": {
      "text/plain": [
       "2803049081168424054299892319"
      ]
     },
     "execution_count": 41,
     "metadata": {},
     "output_type": "execute_result"
    }
   ],
   "source": [
    "dai = w3.eth.contract(address=ADDRESS, abi=ABI)\n",
    "dai.functions.totalSupply().call()"
   ]
  },
  {
   "cell_type": "code",
   "execution_count": 37,
   "id": "greatest-bookmark",
   "metadata": {},
   "outputs": [],
   "source": [
    "TO = '0xafC2F2bBD4173311BE60A7f5d4103b098D2703e8'\n",
    "VALUE = 0x10\n",
    "\n",
    "tx_details = {'chainId': 0, \n",
    "              'gas':70000,\n",
    "              'nonce': w3.eth.getTransactionCount(my_account._address)}\n",
    "\n",
    "transaction = dai.functions.transfer(TO, VALUE).buildTransaction(tx_details)"
   ]
  },
  {
   "cell_type": "code",
   "execution_count": 40,
   "id": "occupied-dover",
   "metadata": {},
   "outputs": [
    {
     "data": {
      "text/plain": [
       "SignedTransaction(rawTransaction=HexBytes('0xf8aa80851ae456230083011170946b175474e89094c44da98b954eedeac495271d0f80b844a9059cbb000000000000000000000000afc2f2bbd4173311be60a7f5d4103b098d2703e8000000000000000000000000000000000000000000000000000000000000001024a0197ed42b7dee6c06800d507d52e779f090b9e4935bced28e576a8e4002d23203a07d4774ea15a73328a7e33c1d223858e953af7a577770f138e7c9334b4c34968f'), hash=HexBytes('0x23f7c54ec56a5ef45fa010c05917a25f9712aab2c7f3bb457e86f184043a1499'), r=11531908287509079991702523443825385404936970009038488710306282777987739955715, s=56665359127991651802063769283898974943070222150993364002021493385040286226063, v=36)"
      ]
     },
     "execution_count": 40,
     "metadata": {},
     "output_type": "execute_result"
    }
   ],
   "source": [
    "signed_txn = w3.eth.account.signTransaction(transaction, my_account._private_key); signed_txn"
   ]
  }
 ],
 "metadata": {
  "kernelspec": {
   "display_name": "Python 3",
   "language": "python",
   "name": "python3"
  },
  "language_info": {
   "codemirror_mode": {
    "name": "ipython",
    "version": 3
   },
   "file_extension": ".py",
   "mimetype": "text/x-python",
   "name": "python",
   "nbconvert_exporter": "python",
   "pygments_lexer": "ipython3",
   "version": "3.8.2"
  }
 },
 "nbformat": 4,
 "nbformat_minor": 5
}
